:020000040800F2
:1000000060060020450100086B2600082523000833
:100010006926000821030008052C000800000000E4
:100020000000000000000000000000007126000831
:100030005B030008000000006D260008732600081E
:100040005F0100085F0100085F0100085F01000810
:100050005F0100086F2600085D0300085F010008CB
:100060005F01000863030008690300082503000816
:100070005F0100085F0100085F0100085F010008E0
:100080005F0100085F0100085F0100085F010008D0
:100090005F0100085F0100085F0100085F010008C0
:1000A0005F0100085F0100085F0100085F010008B0
:1000B000F52600085F0100085F0100085F010008E5
:1000C0005F0100085F0100085F0100085F01000890
:1000D0005F010008F92B00085F0100085F010008BC
:1000E0005F0100085F0100085F0100085F01000870
:1000F0005F0100085F0100085F0100085F01000860
:100100005F0100085F0100085F0100085F0100084F
:100110005F0100085F0100085F0100085F0100083F
:100120005F0100085F0100085F0100085F0100082F
:10013000DFF80CD000F040F800480047D92D000847
:10014000600600200648804706480047FEE7FEE7B5
:10015000FEE7FEE7FEE7FEE7FEE7FEE7FEE7FEE777
:10016000F126000831010008D2B201E000F8012BAD
:10017000491EFBD270470022F6E710B513460A4627
:1001800004461946FFF7F0FF204610BD30B50B4678
:10019000014600202022012409E021FA02F59D42B7
:1001A00005D303FA02F5491B04FA02F52844151E8B
:1001B000A2F10102F1DC30BD064C074D06E0E0681B
:1001C00040F0010394E8070098471034AC42F6D39E
:1001D000FFF7B2FF98300008B830000870B5044649
:1001E00000688168C943C90717D1816821F00101FE
:1001F000816000F083FE05460AE000BF00F07EFE4D
:10020000401B022804D920688068C043C00706D07C
:1002100020688068C043C007F0D0002070BDA06A8D
:1002200040F01000A062E06A40F00100E0620120AE
:1002300070BD10B50146406A826A12F0500F05D0B9
:10024000006A026BBDE8104008461047816A41F41D
:100250000071816201688968C1F3424107290CD1AC
:10026000017B51B9816A21F480718162816AC9047C
:1002700003D4816A41F00101816200F065F910BD8B
:1002800010B5406A816A41F040018162C16A41F063
:100290000401C16200F05AF910BD10B5406A00F0C7
:1002A00054F910BDF8B50026044600960068816830
:1002B000C943C9072DD0816841F00101816016480A
:1002C00016490068B0FBF1F000E0401E00900028E5
:1002D000FBD100F013FE054616E000BF00F00EFE55
:1002E000401B022810D920688068C043C0070BD08B
:1002F000A06A40F01000A062E06A40F00100E062F5
:1003000084F824600120F8BD20688068C043C007DD
:10031000E4D10020F8BD00001000002040420F0092
:10032000FEE70000014800F02DBB0000480000205F
:1003300030B590F840500124AC40C56B6C60046847
:1003400063604368102B036803D099600068C26043
:1003500030BD9A600068C16030BD7047012000F078
:10036000BFBC082000F0BCBC102000F0B9BC72B6C5
:10037000FEE70000F8B500250446009590F824003B
:10038000012808D0012084F824002046FFF726FF2A
:10039000060002D053E00220F8BDA06A20F4885085
:1003A00040F00200A062022000F04EFE26490968DB
:1003B000B1FBF0F0400000E0401E00900028FBD1AF
:1003C0002046FFF76FFF2068816841F008018160D7
:1003D00000F094FD074608E000F090FDC01B0A28DD
:1003E00003D920688068000715D42068806800075A
:1003F000F2D42068816841F00401816000F07EFD44
:10040000074612E000F07AFDC01B0A280DD92068CB
:100410008068400709D5A06A20F0020040F0100073
:10042000A06284F824500120F8BD2068806840074D
:10043000E8D4A06A20F0020040F00100A06284F835
:1004400024503046F8BD000010000020F8B500240C
:10045000009490F824202546012A12D0012280F829
:1004600024204A681F23072A0DD20668776B521E84
:1004700002EB820293409F430B6893401F437763D4
:1004800019E00220F8BD06680D2A0AD2376BD21F88
:1004900002EB820293409F430B6893401F433763F4
:1004A00009E0F76A0D3A02EB820293409F430B6822
:1004B00093401F43F7620A68072306680A2A0AD393
:1004C000F7680A3A02EB420293409F438B689340DD
:1004D0001F43F76008E0376902EB420293409F43F5
:1004E0008B6893401F4337610A68102A01D0112A94
:1004F00020D1124B02689A4217D193681B0219D47B
:10050000936843F4000393600968102912D10C49E1
:100510000C4A0968B1FBF2F101EB8101490000E0EE
:10052000491E00910029FBD104E0816A41F02001BD
:100530008162012480F824502046F8BD0024014047
:100540001000002040420F007047704770470000C5
:100550002DE9F04104004FF000057FD0A06A00268D
:1005600028B9E66284F82460204600F081F820462D
:10057000FFF734FEA16AC90600D420B1A06A40F09A
:100580001000A0626AE0A16A21F4885141F00201E2
:10059000A162334923688B42E16904D1B1F5402F50
:1005A00001D14FF40021277B4FF4807C41EA4702C0
:1005B00061680A43A168614508D0012906D000217D
:1005C00094F814E0BEF1010F02D00AE06146F7E7AB
:1005D000C7B1A76A47F02007A762E76A47F001079B
:1005E000E7625F6827F469470F435F602368996893
:1005F0001C4F394011439960A16861450BD0012916
:1006000009D00CE0DFF860E0A7690EEB47370F4335
:1006100047F40061E5E7218A0D05A5F580152168FD
:10062000CB6A23F470032B43CB62216889680F4B9C
:100630001940914208D1E662A16A21F0020141F01D
:100640000101A162BDE8F081A06A20F0020040F043
:100650001000A062E06A40F00100E0620120F1E7D2
:10066000003C0140FDF7E1FF00E0FFFFFE0E1FFF31
:1006700070B586B000250646009501950295039554
:1006800000681A4988422ED11949886940F40070DF
:100690008861886900F400700490886940F0100057
:1006A00088618869694600F0100004900E2000906F
:1006B000032001900F4800F01FFB104C0E48C4E9C6
:1006C00000058020C4E90250400020618000606184
:1006D0002020C4E90605204600F078FA08B1FFF7AB
:1006E00046FE3462666206B070BD00000024014020
:1006F00000100240001001400800024048000020A5
:100700002DE9F047894604463B4900683B4F0E1DE2
:100710009046884201D0B84207D1306810F4702F5B
:1007200003D001252846BDE8F08794F8240001286D
:100730000CD0012084F824002046FFF7B3FD05000B
:100740004FF0000004D084F82400EBE70220EAE731
:10075000A16A40F60162914341F48071A16221686F
:10076000B94218D1326812F4702F14D0A16A41F442
:100770008011A1623168490505D5A16A21F40051B3
:1007800041F48051A162A16AC9040AD5E16A21F04D
:100790000601E16206E0A26A22F48012A2624968C0
:1007A000E9E7E06284F82400216A15488862216A3A
:1007B0001448C862216A1448086321686FF0020077
:1007C00008602068816841F4807181602168434637
:1007D0004A464C31206A00F037FA20688168C1F33C
:1007E00042410729816803D041F48011816099E773
:1007F00041F4A001FAE70000002401400028014074
:10080000330200089B0200088102000810B590F82E
:1008100021100022022905D00421816380F82020C4
:10082000012010BD01680B6823F00E030B60016806
:100830000B6823F001030B6090F84030C46B01217A
:1008400001FA03F3636080F8211080F8202010463D
:1008500010BD00002DE9F05F90F82110002402295E
:1008600003D004218163012485E001680A6822F035
:100870000E020A6001680A6822F001020A603F4E17
:100880003E4FB215DFF8F4C0DFF8F090DFF8ECA0CF
:10089000DFF8E8B0DFF8E4E00168783F1301150203
:1008A000ACF1640CA9F15009AAF13C0AABF1280B98
:1008B000AEF1140E4FF48018B14227D9B9420ED0D0
:1008C000614512D049451DD0514518D0594518D021
:1008D000714501D1424615E0294EB14201D10122B4
:1008E00010E0274E1436B14201D110220AE0244E06
:1008F0002836B14206D0224A3C32914201D11A46F2
:1009000000E02A461E49091F0A602BE0B94213D0B5
:10091000614517D0494522D051451DD059451DD0BC
:10092000714501D142461AE0B14202D14FF08072C6
:1009300015E0134EB14201D1012210E0104E1436E1
:10094000B14201D110220AE00D4E2836B14206D044
:100950000B4A3C32914201D11A4600E02A4607492F
:1009600080394A60012180F82110002180F8201090
:10097000416B01B188472046BDE8F09F80000240EE
:10098000080402402DE9F05FC16B0A6801680B683A
:10099000046C4FF0040808FA04F8844D844E854F27
:1009A000DFF814C2DFF81492DFF814A2DFF814B2F3
:1009B000DFF814E218EA020F65D05FEA437862D5E7
:1009C0000A68920603D40A6822F004020A60DFF87B
:1009D000F0814FF48062016808F1140813011402D9
:1009E000414524D9A9420DD0B1420FD0B9421AD005
:1009F000614515D0494515D0514501D1120312E08A
:100A0000594501D104220EE0714501D140220AE08E
:100A10006D4D1435A94206D06B4A2832914201D15E
:100A20001A4600E022466749091F0A6029E0A942E8
:100A300013D0B14215D0B94220D061451BD04945F1
:100A40001BD0514502D14FF4800217E0414502D13D
:100A50004FF0806212E0594501D104220EE0714549
:100A600001D140220AE0584D1435A94206D0564A19
:100A70002832914201D11A4600E022464B490839FA
:100A80004A60C16A71E04FF0020808FA04F818EAF7
:100A9000020F70D05FEA83786DD50A68920606D49B
:100AA0000A6822F00A020A60012180F82110DFF8AA
:100AB00010814FF40072016808F114081301140248
:100AC000414524D9A9420DD0B1420FD0B9421AD024
:100AD000614515D0494515D0514501D1120312E0A9
:100AE000594501D102220EE0714501D120220AE0D0
:100AF000354D1435A94206D0334A2832914201D1EE
:100B00001A4600E022462F49091F0A6029E0A9423F
:100B100013D0B14215D0B94220D061451BD0494510
:100B20001BD0514502D14FF4001217E0414502D1CC
:100B30004FF0007212E0594501D102220EE07145DA
:100B400001D120220AE0204D1435A94206D01E4AC8
:100B50002832914201D11A4600E022461349083951
:100B60004A60002180F82010816A00291CD0BDE86D
:100B7000F05F0847FFE70825A540154214D01A0783
:100B800012D50A6822F00E020A6090F84020C36B6A
:100B9000012101FA02F25A60816380F821100021DC
:100BA00080F82010016BE0E7BDE8F09F08000240EC
:100BB0001C00024030000240440002405800024045
:100BC0006C000240080402401C04024030B560B1D1
:100BD0001A4B026814219A4209D2194B1344B3FBF1
:100BE000F1F18900016417490AE0012030BD134B7F
:100BF0005B421344B3FBF1F1890001640F490839EA
:100C0000C163022180F82110136843F6F0718B4311
:100C1000F0E901142143D0E902452C432143046942
:100C20002143446921438469214319431160002110
:100C30004163012242770177084630BD0804024033
:100C4000F8FFFDBF0000024070B5044690F8200098
:100C5000002501280CD0012084F8200094F82160A0
:100C60000020012E06D084F820000225284670BD01
:100C7000022070BD022684F82160A0632068066807
:100C800026F0010606602046FFF752FBE06A0028C6
:100C90002068016802D041F00E0106E021F0040155
:100CA00001602068016841F00A0101602068016864
:100CB00041F001010160D9E770B5044600F01EF96A
:100CC0000546601C02D004480078044400F016F980
:100CD000401BA042FAD370BD040000207047000002
:100CE000044910B50A68024202D00860FFF7F6FF17
:100CF00010BD0000140401402DE9F84FDFF8C89141
:100D0000002409F1040A0AF1040B23460F270BF112
:100D1000040ED1E00125A54006EA0502AA4276D1DB
:100D2000DFF8A8C14E68A6EB0C0866452BD00DDC99
:100D3000032E34D005DC36B3012E19D0022E2FD16C
:100D40001BE0112E16D0122E2AD119E0B8F5881FFB
:100D500019D006DCB8F5803F15D0B8F5801F1FD13B
:100D600011E0B8F5001F0ED0B8F5041F18D10AE045
:100D7000CB6815E0CB681B1D12E0CB6808330FE091
:100D8000CB680C330CE08B682BB1012B4FF00803C0
:100D900003D0456104E0042302E0056100E0002384
:100DA000FF2A01D8064601E000F104064FEA840557
:100DB00001D9A5F12005D6F8008007FA05FC28EA3C
:100DC0000C0803FA05F548EA0508C6F800804D68E6
:100DD000ED0070D53E4DAE6946F00106AE61AD69DD
:100DE00024F0030605F0010500953A4D06EB050CCD
:100DF000DCF80850A607360F07FA06F825EA0805BA
:100E0000DFF8D480404503D14FF0000825E052E0E0
:100E1000DFF8C880404502D14FF001081DE0DFF83F
:100E2000C080404502D14FF0020816E0DFF8B480E0
:100E3000404502D14FF003080FE0DFF8AC80404599
:100E400002D14FF0040808E0DFF8A080404502D14D
:100E50004FF0050801E04FF0060808FA06F848EAE6
:100E60000508CCF808804D68D9F80060ED034D46C0
:100E700001D5164300E096432E604D68DAF8006015
:100E8000AD03554601D5164300E096432E604D68EC
:100E9000DBF80060ED025D4601D5164300E09643A5
:100EA0002E604D68DEF80060AD02754601D5164330
:100EB00000E096432E60641C0A681646E2407FF408
:100EC00029AFBDE8F88F00000004014000001110B8
:100ED000001002400000014000080140000C0140E9
:100EE000001001400014014000180140001C0140A6
:100EF0000AB1016170470904FBE7000001488068FE
:100F00007047000004000020024881680278114404
:100F10008160704704000020074810B5016841F067
:100F200010010160032000F07DF80F2000F006F8AA
:100F300000F024F8002010BD0020024070B50D4DD7
:100F400004464FF47A712878B1FBF0F00A49096839
:100F5000B1FBF0F000F0D4FB48B9102C07D200220E
:100F60002146501E00F03EF800206C6070BD01204C
:100F700070BD00000400002010000020104808B5DB
:100F8000816941F001018161816901F001010091F4
:100F9000C16941F08051C161C069002200F08050F8
:100FA00000901146052000F01DF8052000F00CF817
:100FB0000448416821F0E06141F00071416008BDE2
:100FC0000010024000000140002809DB00F01F0271
:100FD000012191404009800000F1E020C0F800119B
:100FE00070470000F0B40E4B1B680C46C3F302239D
:100FF000C3F10705042D00D90425191D072901D2C5
:10100000002300E0DB1E012606FA05F1491E2140FF
:1010100099409E40761E16403143F0BC01F004BE5C
:101020000CED00E0064900F0070208684FF6FF03E8
:10103000184040EA0220034A10430860704700004D
:101040000CED00E00000FA0510B52CA401461DCC03
:1010500086B08DE81D002DA02D4C00680490002066
:1010600004292FD00BDC01292FD0022928D100F030
:1010700071F96168C1F38131491C49001EE00829FA
:1010800020D010291CD161682268D20118D5C1F383
:101090008342C9031DF8020009D5616804AAC1F39F
:1010A0004041515C1B4AB2FBF1F1484301E01A494F
:1010B00048436168490203D440000321B0FBF1F0CA
:1010C00006B010BD00F056F9FAE7226AC2F301211A
:1010D000012903D1920701D5C803F1E7022905D1FF
:1010E000626A920702D549F64040E9E70329E7D151
:1010F00021688903E4D54FF22440E1E702030405A7
:10110000060708090A0B0C0D0E0F10100102000053
:101110000010024000127A0000093D002DE9F8435A
:1011200005460078354CC00754D0E0690026C00061
:1011300008D4E06940F08050E061E069012600F0E9
:10114000805000902E480168C90512D4016880467D
:1011500041F480710160FFF7D1FE074605E000BF52
:10116000FFF7CCFEC01B642823D8D8F80000C005C8
:10117000F6D5206A10F4407021D0A98801F440719E
:1011800081421CD0206A1F49012220F440700A606D
:1011900000220A602062C00711D0FFF7AFFE0746A9
:1011A00041F2883808E000BFFFF7A8FEC11B4145A7
:1011B00002D90320BDE8F883206A8007F4D5206AAD
:1011C000696820F44070084320621EB1E06920F095
:1011D0008050E0612878800705D56068A96820F410
:1011E0004040084360602878C00605D5606869699A
:1011F00020F48000084360600020DBE7001002401C
:1012000000700040400442422DE9F0470F460500BF
:1012100061D0434E306800F00700B84209D2306810
:1012200020F0070038433060306800F00700B84213
:1012300051D128683B4C810712D5400703D560681F
:1012400040F4E06060602878000703D5606840F4EF
:10125000605060606068A96820F0F000084360603A
:101260002878C00728D06868012810D02168022893
:1012700010D0890700292EDA616821F003010143AB
:101280006160FFF73BFE804641F288390DE021683E
:101290008903EFE78901EDE7FFF730FEA0EB0801D6
:1012A000494502D90320BDE8F0876068696800F00D
:1012B0000C00B0EB810FEFD1306800F00700B842AE
:1012C0000BD9306820F0070038433060306800F0F8
:1012D0000700B84201D00120E5E72878400705D58E
:1012E0006068E96820F4E0600843606028780007DF
:1012F00006D56068296920F4605040EAC10060604A
:1013000000F038F86168084AC1F30311515CC84025
:101310000649086006480068FFF710FE0020C2E793
:101320000020024000100240803000081000002021
:10133000080000200448054900684968044AC1F3D0
:101340000221515CC840704710000020001002408C
:10135000903000080448054900684968044AC1F310
:10136000C221515CC84070471000002000100240AC
:101370009030000812A185B00FC98DE80F0014A0AD
:10138000144A006804905168134801F00C03042BC0
:1013900010D0082B0ED1C1F38343C9031DF80300FD
:1013A0000AD5516804AAC1F34041515C0A4A50432E
:1013B000B0FBF1F005B0704708494843FAE7000078
:1013C00002030405060708090A0B0C0D0E0F101086
:1013D000010200000010024000127A0000093D00E6
:1013E0002DE9F84F040070D02078C04DC00749D0D7
:1013F0006868C0F38100012807D06868C0F38100E5
:10140000022809D16868C00306D52868800339D549
:1014100060680028E7D035E06068B0F5803F0BD009
:1014200010B1B0F5A02F11D0286820F480302860CA
:10143000286820F4802002E0286840F4803028608A
:10144000606890B1FFF75AFD06460AE0286840F44C
:1014500080202860F0E700BFFFF750FD801B642864
:1014600073D828688003F7D50CE0FFF747FD0646E0
:1014700005E000BFFFF742FD801B6428F0D8286814
:101480008003F7D420789A4E80074FF001094FF07F
:10149000000839D5686810F00C0F07D06868C0F3F1
:1014A0008100022809D16868C00306D42868800733
:1014B00014D52069012808D110E02069B0B1C6F820
:1014C0000090FFF71BFD074605E00AE1FFF716FD58
:1014D000C01B0228C4D828688007F7D5286861692E
:1014E00020F0F80040EAC10028600DE0C6F8008056
:1014F000FFF704FD074604E0FFF700FDC01B0228CC
:1015000023D828688007F7D4207800072CD579489D
:10151000A169D9B1C0F80090FFF7F0FC074604E0DC
:10152000FFF7ECFCC01B02280FD8686A8007F7D5CC
:1015300071484FF4FA510068B0FBF1F0009000BF21
:101540000098411E0091FAD20EE080E0C0F80080C1
:10155000FFF7D4FC074604E0FFF7D0FCC01B0228CD
:1015600075D8686A8007F7D42078400760D5E869A5
:101570000027C00008D4E86940F08050E861E869BD
:10158000012700F0805000905C480168C90513D421
:101590000168834641F480710160FFF7AFFC824629
:1015A00006E000BFFFF7AAFCA0EB0A0064284ED8B3
:1015B000DBF80000C005F5D5E06801280AD008B1C5
:1015C000052813D0286A20F001002862286A20F03C
:1015D000040002E0286A40F001002862E06841F25D
:1015E000883B98B1FFF78AFC82460BE0286A40F0FE
:1015F00004002862EEE700BFFFF780FCA0EB0A01C1
:1016000059455AD8286A8007F6D50CE0FFF776FCD2
:10161000824605E0FFF772FCA0EB0A0159454CD861
:10162000286A8007F6D41FB1E86920F08050E8618D
:10163000E06988B36968C1F38101022944D00228B6
:10164000C6F8608004D0FFF759FC044638E034E067
:10165000FFF754FC074604E0FFF750FCC01B0228CC
:101660002BD828688001F7D4206AB0F5803F05D1D7
:101670006868A16820F4003008436860D4E9080174
:101680000843696821F4741108436860C6F86090E3
:10169000FFF734FC044606E025E000BFFFF72EFC10
:1016A000001B022809D828688001F7D51BE000BF7D
:1016B000FFF724FC001B022802D90320BDE8F88FA5
:1016C00028688001F4D40EE00128F7D06868226A07
:1016D00000F48031914204D1616A00F470108842B4
:1016E00001D00120EAE70020E8E7000000100240F6
:1016F000000042428004424210000020007000407E
:1017000010B5401EB0F1807F01D3012010BD4FF015
:10171000E02460610F21601701F086FA0020A061CB
:1017200007202061002010BD7047704710B590F869
:101730003C20012A22D0012280F83C20CA688C6813
:1017400022F4407222434C6822F4806222430C68E7
:1017500022F4006222430C6922F4805222434C6935
:1017600022F400522243C969002322F480420A4332
:1017700001684A6480F83C30002010BD022010BD92
:1017800070B590F83C20012A2CD0012480F83C4010
:10179000022280F83D2003685A689D6822F0700696
:1017A0000A6832435A60104B02689A420ED00F4BBF
:1017B0009A420BD0B2F1804F08D00D4B9A4205D01F
:1017C0000C4B9A4202D00C4B9A4204D1496825F046
:1017D00080031943916080F83D40002180F83C105F
:1017E000084670BD022070BD002C0140003401404D
:1017F0000004004000080040000C004010B5044602
:10180000022249B104290ED0082913D094F84500CA
:10181000012816D0012010BD94F842000128F9D10A
:1018200084F842200FE094F843000128F2D184F8B4
:10183000432008E094F844000128EBD184F84420C8
:1018400001E084F845200422206800F0ACFF206805
:10185000416C41F4004141640E49206888420ED039
:101860000D4988420BD0B0F1804F08D00B49884217
:1018700005D00B49884202D00A49884204D18168C8
:1018800001F00701062903D0016841F00101016060
:10189000002010BD002C0140003401400004004035
:1018A00000080040000C004010B5040003D094F87C
:1018B0003D0010B107E0012010BD002084F83C007D
:1018C000204600F01FF8022084F83D00211D20680A
:1018D00000F016FF012084F8460084F83E0084F8EA
:1018E0003F0084F8400084F8410084F8420084F806
:1018F000430084F8440084F8450084F83D0000204B
:1019000010BD000008B501681048B1F1804F0BD040
:101910000F4A914207D1816941F400518161806988
:1019200000F40050009008BDC16941F00101C1619F
:10193000C069002200F00100009011461C20FFF752
:1019400051FBBDE808401C20FFF73EBB00100240E1
:101950000034014090F83D10012901D0012070476A
:10196000022180F83D100168CA6842F00102CA6095
:1019700000680E4988420ED00D4988420BD0B0F164
:10198000804F08D00B49884205D00B49884202D0CD
:101990000A49884204D1816801F00701062903D071
:1019A000016841F00101016000207047002C0140F6
:1019B000003401400004004000080040000C0040DA
:1019C00070B5044690F83C00012817D0012584F832
:1019D0003C50022084F83D002068826822F07702A3
:1019E00022F47F4282600868502830D00DDC202825
:1019F0004DD005DC98B310283BD148E0022070BDE3
:101A0000302844D0402834D139E0602828D07028CC
:101A100006D0B0F5805F2CD0B0F5005F29D10AE088
:101A2000CB68D1E90121206800F0CAFE20688168F6
:101A300041F0770109E0CB68D1E90121206800F08D
:101A4000BFFE2068816841F48041816011E0CA686E
:101A50004968206800F088FF5021206807E016E000
:101A6000CA684968206800F090FF6021206800F093
:101A7000B1FE84F83D50002084F83C0070BDCA6877
:101A80004968206800F070FF40212068EFE7226875
:101A900001461046EBE7704770B5044600680169DF
:101AA0004FF00005C943890715D4C168C9438907A8
:101AB00011D4E91E01610120207720688069800728
:101AC000204602D0FFF7E7FF04E000F0E3F82046ED
:101AD00000F072F9257720680169C943490717D4D6
:101AE000C168C943490713D46FF0040101610220A2
:101AF00020772068806910F4407F204602D0FFF7ED
:101B0000CAFF04E000F0C6F8204600F055F925773A
:101B100020680169C943090716D4C168C943090788
:101B200012D46FF008010161042020772068C06999
:101B30008007204602D0FFF7AEFF04E000F0AAF8CD
:101B4000204600F039F9257720680169C943C906A4
:101B500017D4C168C943C90613D46FF010010161DD
:101B6000082020772068C06910F4407F204602D00A
:101B7000FFF791FF04E000F08DF8204600F01CF91B
:101B8000257720680169C943C90708D1C168C943DD
:101B9000C90704D1891E0161204600F069F9206857
:101BA0000169C943090609D4C168C943090605D4B6
:101BB0006FF0800101612046FFF7B6FD20680169E2
:101BC000C943490609D4C168C943490605D46FF021
:101BD00040010161204600F069F920680169C943AC
:101BE00089060BD4C168C943890607D46FF0200168
:101BF00001612046BDE87040FFF797BD70BD000051
:101C000030B585B0002100910191029103910068E7
:101C10001B49884232D11B48816941F0040181612E
:101C2000816901F004010491816941F00801816139
:101C3000816901F008010491816941F0100181611D
:101C40008069022500F0100004908020CDE9000595
:101C50000324694603940C48FFF74EF8CDE900458C
:101C600069460A480394FFF747F84FF4E070CDE95E
:101C70000005694603940648FFF73EF805B030BDFD
:101C8000003401400010024000080140000C0140F7
:101C900000100140704770B5044690F83C000D46B6
:101CA00001280AD0012084F83C0042B1042A18D04F
:101CB000082A2AD00C2A4DD139E0022070BD2068B4
:101CC00000F090FD2068816941F008018161206881
:101CD000816921F004018161206881692A691143C9
:101CE00011E0206800F0AEFD2068816941F40061D8
:101CF00081612068816921F4806181612068816946
:101D00002A6941EA0221816124E0206800F0D0FDC7
:101D10002068C16941F00801C1612068C16921F0F2
:101D20000401C1612068C1692A69114311E020687A
:101D300000F0F2FD2068C16941F40061C1612068D2
:101D4000C16921F48061C1612068C1692A6941EAE1
:101D50000221C161002084F83C0070BD10B5040070
:101D600003D094F83D0010B107E0012010BD002021
:101D700084F83C00204600F01EF8022084F83D0064
:101D8000211D206800F0BCFC012084F8460084F886
:101D90003E0084F83F0084F8400084F8410084F855
:101DA000420084F8430084F8440084F8450084F835
:101DB0003D00002010BD70477047000010B504467C
:101DC000022249B104290ED0082913D094F8410009
:101DD000012816D0012010BD94F83E000128F9D149
:101DE00084F83E200FE094F83F000128F2D184F8F7
:101DF0003F2008E094F840000128EBD184F840200F
:101E000001E084F841200122206800F0BFFC134962
:101E10002068134A884201D0904203D1436C43F4B6
:101E200000434364206888420DD090420BD0B0F14B
:101E3000804F08D00B49884205D00B49884202D018
:101E40000A49884204D1816801F00701062903D0BC
:101E5000016841F001010160002010BD002C01402B
:101E6000003401400004004000080040000C004025
:101E700010B50B490068096888420BD1094C0A4823
:101E8000217841B101222021FFF732F8207820B1DA
:101E90000020207010BD0022F5E70120F9E70000C6
:101EA0008C00002000000020000C014070477047AB
:101EB000704710F83D1F407808437047F8B5026836
:101EC00004461068D168536910F00F0F4FF00005F9
:101ED00053D003F0010601F4907737435FD0C20777
:101EE00005D0CA0503D5226C42F0010222644207E4
:101EF00005D5DA0703D0226C42F002022264820781
:101F000005D5DA0703D0226C42F0040222640207EE
:101F100007D501F02002324303D0226C42F00802C0
:101F20002264226C002A34D0800604D5880602D5AB
:101F3000204600F05CFD20684069216CC0F38010F1
:101F4000090700D430B3204600F039FD206841690C
:101F500049061BD5416921F040014161A06BA8B140
:101F600058494163A06BFEF775FC002811D0A06BA7
:101F7000416B01B0BDE8F040084783060FD58B06E2
:101F80000DD52046BDE8F84000F031BD2046FFF7F2
:101F90008FFFF8BD2046FFF78BFF2564F8BD266B49
:101FA0002023012E52D1C60650D5CE064ED510683C
:101FB00050680090506940062AD5A16B08684068B7
:101FC0000004000CEAD0A68D8642E7D9E085886936
:101FD000202818D0D06820F48070D0602068416933
:101FE00021F0010141612068416921F04001416116
:101FF00084F83E3025632068C16821F01001C1607B
:10200000A06BFEF703FCA08DE18D401A81B219E0B0
:10201000A08DE18D401A81B2E08D0028BED000294C
:10202000BCD0D06820F49070D0602068426922F063
:102030000102426184F83E3025632068C26822F0C4
:102040001002C2602046FFF732FFF8BD05062BD50F
:102050000D0629D594F83D002128F6D1A068B0F5E9
:10206000805F01D12069B0B1206A411C21622168E2
:1020700000784860E08C401E0004000CE084E4D14D
:102080002068C16821F08001C1602068C16841F00A
:102090004001C160F8BD206A0088C0F308005060AC
:1020A000206A801C2062E5E74006F3D54806F1D59A
:1020B000D168204621F04001D16084F83D3000F025
:1020C00030F9F8BDAF29000870B5040004D094F8C9
:1020D0003D00002510B106E0012070BD84F83C50A1
:1020E000204600F023F8242084F83D002068C168D1
:1020F00021F40051C160204600F0D4FC2068016941
:1021000021F4904101612068416921F02A01416177
:102110002068C16841F40051C1602564202084F822
:102120003D0084F83E00002070BD000030B585B051
:102130000024009401940294039400681949884291
:102140002DD11948816941F480418161816901F48F
:1021500080410491816941F0040181618069134DDE
:1021600000F0040004904FF40070009002200190F1
:102170000320039069462846FEF7BEFD2815CDE9E9
:1021800000040120029069462846FEF7B5FD0022B2
:1021900003212520FEF726FF2520FEF715FF05B0B9
:1021A00030BD00000038014000100240000801402E
:1021B00090F83E30202B0ED159B152B190F83C30FE
:1021C000012B08D0012380F83C300023036300F08A
:1021D000C5BC012070470220704700002DE9F04186
:1021E0001D4C00254FF4807620784FF6FF77FF28AE
:1021F0000BD3257031461948FDF7BDFF3B460A2237
:1022000017A11A4800F034F81DE0144962780A5406
:10221000401CC2B28818227010F8011C0A2912D181
:1022200010F8020C0D280ED13B460C490F4800F067
:102230001FF80E48FFF73DFE2128FAD025703146E1
:102240000648FDF798FFBDE8F04103490122491C0B
:102250000648FFF7ADBF0000010000201C01002070
:10226000CAFDBEDDD2E7B3F6000000001C0200206C
:102270002DE9F843044690F83D001F4616460D46EA
:1022800020284CD1C5B1BEB194F83C00012846D0FD
:10229000012084F83C004FF00008C4F84080212061
:1022A00084F83D00FEF72AFEA6848146E684A068F5
:1022B000B0F5805F03D004E00120BDE8F883206919
:1022C00028B12E465FF0000584F83C800EE0002621
:1022D000FAE78021204600F05CFCA0B9AEB116F808
:1022E000010B21684860E08C401EE084E08C4B4686
:1022F0004FF0000200970028EBD14FF0400120463C
:1023000000F047FC30B10320D7E735F8020BC0F3EB
:102310000800E6E7202084F83D000020CDE70220F9
:10232000CBE77047FEE70000FEB500241A48009492
:102330000194184902940160891581600125057393
:102340000475032606614FF460214460C161FEF705
:10235000FFF808B1FEF70BF80B20CDE90005694640
:1023600002940D48FEF772F808B1FEF700F802205B
:10237000019069460848FEF769F808B1FDF7F7FFD4
:10238000694605480196FEF761F8002801D0FDF77F
:10239000EEFFFEBD0024014018000020094808B5EA
:1023A000416941F0010141614069002200F00100F2
:1023B000009011460B20FEF715FEBDE808400B20EB
:1023C000FEF702BE001002402DE9F04385B0002563
:1023D00038480095019502950395816941F04001C7
:1023E0008161816901F040010491816941F010012E
:1023F0008161816901F010010491816941F004015A
:102400008161816901F004010491816941F0080151
:1024100081618069DFF8A08000F00800049001224B
:1024200020214046FEF764FDDFF890900122202134
:102430004846FEF75DFD1820009021480124CDE9B3
:10244000010469464046FEF757FC202701AA0226F0
:10245000009782E8700069464046FEF74DFC194837
:102460006946CDE9004002961748FEF745FC01AAEF
:10247000009782E8700069464846FEF73DFC00225E
:1024800004210620FEF7AEFD0620FEF79DFD00228A
:1024900004210920FEF7A6FD0920FEF795FD002284
:1024A00004210A20FEF79EFD0A20FEF78DFD05B0EF
:1024B000BDE8F0830010024000180140000C01400C
:1024C00000002110000011100008014010B586B076
:1024D00000241748009401940294039404944FF04C
:1024E00080410594016041F61F41C0E9011441F2A9
:1024F0008731C0E9031480218161FFF7D5F908B164
:10250000FDF735FF4FF48050009069460848FFF70B
:1025100057FA08B1FDF72BFF049404A90448059469
:10252000FFF72EF9002801D0FDF721FF06B010BDFE
:102530008C00002010B596B000240F9410941194D4
:10254000129413941C2168461494FDF714FE202164
:1025500007A8FDF710FE35483349C0E9001440F2E2
:102560000771C0E9024180210461C0E90541FFF71C
:102570009BF908B1FDF7FBFE4FF480500F900FA9B7
:102580002A48FFF71DFA08B1FDF7F1FE2748FFF7CB
:10259000E5FB08B1FDF7EBFE139413A9234814944F
:1025A000FFF7EEF808B1FDF7E2FE602000904FF46F
:1025B0006170CDE9010403940494059400226946F6
:1025C0001A480694FFF767FB08B1FDF7D0FE4FF4F9
:1025D00016700190042269461448FFF75CFB08B1AD
:1025E000FDF7C5FE40F214500190082269460F48DD
:1025F000FFF751FB08B1FDF7BAFE07944820089495
:10260000CDE909404FF40050CDE90B4007A9074838
:102610000E94FFF78BF808B1FDF7A9FE0348FFF70A
:10262000EFFA16B010BD000000340140D4000020C5
:102630000C4810B50A4901604FF4E13141600021B6
:1026400081600C22C160C0E904128161C161FFF7A1
:102650003BFD002803D0BDE81040FDF788BE10BD4B
:10266000003801401C020020FEE7FEE7704770477B
:102670007047FEF749BC30B595B028216846FDF794
:102680007AFD14210AA8FDF776FD18210FA8FDF7A1
:1026900072FD01210804CDE90010002502950224F5
:1026A0000491CDE907404FF4E01009906846FEF729
:1026B00097FE08B172B6FEE70AA90F2081E8310043
:1026C0004FF48060CDE90D0502210AA8FEF79CFDBC
:1026D00008B172B6FEE74FF4004011900F940FA8B6
:1026E000FEF71CFD002801D072B6FEE715B030BD24
:1026F000704700000148FFF7CFB900008C000020B0
:10270000F0B502681C4B1D4D1D4E1E4F1E4C4FF068
:10271000804C984209D0A04207D0604505D0A8421D
:1027200003D0B04201D0B84204D122F0700E4A6802
:1027300042EA0E02984209D0A04207D0604505D077
:10274000A84203D0B04201D0B84203D122F4407570
:10275000CA682A434D6922F080022A4302608A68CF
:10276000C2620A688262984201D0A04201D109691E
:10277000016301214161F0BD002C014000040040D3
:1027800000080040000C00400034014010B501F08A
:102790001F030121046A99408C430462016A9A4034
:1027A0001143016210BD10B501F01F030421046A3A
:1027B00099408C430462016A9A401143016210BD42
:1027C00010B5846842EA032224F47F440A4322437A
:1027D000826010BD826822F070020A4342F0070155
:1027E00081607047F0B5026A22F001020262036A5A
:1027F00042688469124E24F073050C682C4323F060
:1028000002058B682B430D4DA84201D0B04205D183
:1028100023F00807CB683B4323F00403A84201D010
:10282000B04205D14D6922F4407215438A692A43AA
:1028300042608461496841630362F0BD002C01403D
:1028400000340140F0B5026A22F010020262026A0E
:10285000436884690D6824F4E64444EA05248D68DD
:1028600022F0200242EA05120F4D104EA84201D07C
:10287000B04206D1CF6822F0800242EA071222F06D
:102880004002A84201D0B04207D14D6923F4406311
:1028900043EA85038D6943EA85034360846149689F
:1028A00081630262F0BD0000002C01400034014051
:1028B000F0B5026A22F480720262026A4368C46957
:1028C00022F4007224F073050C68124E2C438D68BC
:1028D00042EA05220E4DA84201D0B04206D1CF688F
:1028E00022F4006242EA072222F48062A84201D068
:1028F000B04207D14D6923F4405343EA05138D6973
:1029000043EA05134360C4614968C1630262F0BDD4
:10291000002C01400034014030B5026A22F480529C
:102920000262046A4268C3690D6823F4E64343EA1D
:1029300005238D6824F4005444EA0534084DA84268
:1029400002D0084DA84204D14D6922F4804242EAE7
:1029500085124260C36149680164046230BD0000B1
:10296000002C01400034014010B5036A046A24F0D1
:1029700001040462846924F0F00444EA021423F0A0
:102980000A020A438461026210BD10B5036A23F093
:10299000100303628369046A23F4704343EA02323A
:1029A00024F0A00343EA01118261016210BD10B559
:1029B000406A0021C185C184FFF77AFA10BD016821
:1029C000CA6822F49072CA6001684A6922F0010262
:1029D0004A61016B012904D10168CA6822F0100222
:1029E000CA60202180F83E1000210163704708B5BD
:1029F00090F83E10222901D0022008BD82684FF4D1
:102A000080539A4201D1016921B1816A9A421BD057
:102A10004AB10AE00268816A5268C2F308020A8079
:102A2000816A891C08E0026972B10268526802F08A
:102A30007F020A70816A491C8162C18D491E0904A6
:102A4000090CC18503D019E002685268F1E70168FA
:102A5000CA6822F02002CA600168CA6822F4807243
:102A6000CA6001684A6922F001024A61202180F8A7
:102A70003E10016B012903D0FFF7B0FB002008BD19
:102A8000002101630168CA6822F01002CA6001686F
:102A90000A68D20602D50A6849680091818DFFF75D
:102AA00006FAEBE770B5044600680169E26821F4B4
:102AB0004051114301612169A068084361690843DD
:102AC0002168CA6841F20C639A430243CA602068D5
:102AD0004169A26921F44071114341611E49206896
:102AE000884202D1FEF736FC01E0FEF723FC00EB42
:102AF000C00101EB0012606864218000B2FBF0F3BA
:102B0000B3FBF1F36FF018067343B2FBF0F5B2FBC1
:102B1000F0F605EB8305322303EB0515B5FBF1F564
:102B2000B6FBF1F605F0F00505EB0615B2FBF0F685
:102B3000B2FBF0F0B0FBF1F06FF01802504306EB7F
:102B4000800003EB0010B0FBF1F0216800F00F00F3
:102B50002844886070BD0000003801408162828591
:102B6000C28500210164222280F83E2080F83C10BA
:102B70000168CA6842F48072CA6001684A6942F01A
:102B800001024A610068C16841F02001C160002073
:102B900070472DE9F041984617460E460446069DBB
:102BA0001DE0681C1BD02DB1FEF7A8F9A0EB0800B2
:102BB000A84214D92068C16821F4D071C16020688E
:102BC000416921F001014161202084F83D0084F831
:102BD0003E00002084F83C000320BDE8F08120681E
:102BE000006836EA000004D00020B842D9D00020A6
:102BF000F3E70120F9E700000148FFF75FB90000A3
:102C00001C020020FEE700000FB4054B10B503A91D
:102C1000044A029800F028F810BC5DF814FB00008C
:102C2000BD2D0008140000200907090E002804DB50
:102C300000F1E02080F80014704700F00F0000F170
:102C4000E02080F8141D704702E008C8121F08C178
:102C5000002AFAD170477047002001E001C1121F1D
:102C6000002AFBD1704700002DE9FF4F89B09B4639
:102C70000446002506E025280BD05A460B999047BC
:102C8000641C6D1C20780028F5D10DB02846BDE8E5
:102C9000F08F0027B8460122474900E0074314F8A7
:102CA000013F203B02FA03F00842F7D120782E289A
:102CB00019D114F8010F47F004072A280ED06FF03D
:102CC0002F022078A0F1300109290CD808EB8801E7
:102CD00002EB410100EB0108641CF2E70A98641C56
:102CE00050F8048B0A9020780028CED0642808D0B1
:102CF000692806D075281ED05A460B9990476D1C3E
:102D000058E00A994FF00A0901C90A91002802DA2D
:102D100040422D2102E0390504D52B218DF82010E9
:102D2000012103E0F90704D02021F7E78A4608AE25
:102D30000DE00021FAE70A994FF00A0901C90A914A
:102D4000F7E74946FDF722FA303106F8011D002861
:102D5000F7D1ADEB060000F12009780701D44FF060
:102D60000108C84502DDA8EB090000E0002080460C
:102D7000002706E008A85A46C05D0B9990476D1CD5
:102D80007F1C5745F6DB04E030205A460B999047EC
:102D90006D1CB8F10001A8F10108F5DC05E016F89A
:102DA000010B5A460B9990476D1CB9F10001A9F12E
:102DB0000109F4DC641C65E70928010038B5044604
:102DC0008DF800000223012269460248FFF750FAFD
:102DD000204638BD1C02002086B037A30FCB8DE8FB
:102DE0000F00002004900590FEF796F8FFF743FCD3
:102DF000FFF7EAFAFFF76AFBFFF71AFCFFF79AFB07
:102E0000FFF7CCFAFFF790FA2F48FEF7A3FD012257
:102E10002E492F48FFF7CCF900212E48FEF7EEFC93
:102E200000212C48FEF7CAFF04212A48FEF7E6FCE1
:102E300004212848FEF7C2FF08212648FEF7DEFCE1
:102E400008212448FEF7BAFF2348FDF793FA06222B
:102E500004A92148FDF754FC20A0FFF7D5FE2FA0C0
:102E6000FFF7D2FE3DA0FFF7CFFE4CA0FFF7CCFE50
:102E70005AA0FFF7C9FE69A0FFF7C6FE4FF47A73A8
:102E80000F2269461248FFF7F3F94FF4FA7400BFB6
:102E9000BDF8101071A0FFF7B7FEBDF8121072A0B8
:102EA000FFF7B2FEBDF8141072A0FFF7ADFE20468A
:102EB000FDF702FFECE7000068656C6C6F20776F30
:102EC000726C64210D0A00008C00002002000020BA
:102ED0001C020020D4000020180000202020202008
:102EE00020205F202020202020205F5F5F5F2020A7
:102EF00020205F5F5F5F20205F5F5F5F5F5F20205C
:102F0000205F5F5F5F5F5F5F5F20205F5F5F5F5F8E
:102F10005F5F202020200D0A0000000020202020DC
:102F2000202F205C20202020207C5F2020205C207F
:102F3000202F2020205F7C7C5F2020205F205C20D1
:102F40007C5F2020205F5F20207C7C5F2020205F32
:102F50005F20205C2020200D0A000000202020207F
:102F60002F205F205C2020202020207C2020205C3F
:102F70002F2020207C202020207C207C5F29207C8A
:102F800020207C207C5F205C5F7C20207C207C5F7C
:102F90005F20207C2020200D0A0000002020202F10
:102FA000205F5F5F205C20202020207C207C5C2034
:102FB000202F7C207C202020207C20205F5F272E5B
:102FC00020207C20205F7C205F2020207C20205F30
:102FD0005F20202F2020200D0A000000205F2F20DE
:102FE0002F2020205C205C5F20205F7C207C5F5CA9
:102FF0002F5F7C207C5F20205F7C207C5F5F29200E
:103000007C5F7C207C5F5F2F207C205F7C207C208D
:10301000205C205C5F200D0A000000007C5F5F5F89
:103020005F7C207C5F5F5F5F7C7C5F5F5F5F5F7C5E
:103030007C5F5F5F5F5F7C7C5F5F5F5F5F5F5F2F79
:103040007C5F5F5F5F5F5F5F5F7C7C5F5F5F5F7C1C
:10305000207C5F5F5F7C0D0A000000004144313D31
:1030600025640A0D000000004144323D25640A0D2C
:10307000000000004144333D25640A0D00000000BB
:103080000000000000000000010203040607080918
:103090000000000001020304B83000080000002016
:1030A00018000000482C0008D0300008180000204C
:1030B00048060000582C0008000000000100000035
:1030C00010000000000000000024F40000000000D8
:0400000508000131BD
:00000001FF
